:100000000C942A000C9447000C9447000C94470071
:100010000C9447000C9447000C9447000C94470044
:100020000C9447000C9447000C9447000C94470034
:100030000C9447000C9447000C9447000C94470024
:100040000C9447000C9447000C9447000C94470014
:100050000C94470011241FBECFE5D4E0DEBFCDBF16
:1000600010E0A0E6B0E0EAEFF4E002C005900D92E7
:10007000A23BB107D9F720E0A2EBB0E001C01D928E
:10008000A33BB207E1F70E94A7010C947B020C94FA
:1000900000009BB3282F207F9F70922B9BBBDA9888
:1000A000DB9AE7ECF0E03197F1F700C00000DB9855
:1000B000EFE1F3E03197F1F700C000002BB3F0E17E
:1000C0008F9FC0011124922F9F70892B8BBBDB9ACD
:1000D00087EC90E00197F1F700C00000DB980895ED
:1000E0009BB3282F207F9F70922B9BBBDA9ADB9AC1
:1000F000E7ECF0E03197F1F700C00000DB98EFE3A8
:10010000FFE13197F1F700C000002BB3F0E18F9FC2
:10011000C0011124922F9F70892B8BBBDB9A8FE338
:100120009FE10197F1F700C00000DB9808958CEF84
:100130008ABBDB982FEF83EC99E021508040904000
:10014000E1F700C0000083E30E9449002FEF89EF30
:1001500090E0215080409040E1F700C0000082E331
:100160000E9449002FEF89EF90E02150804090409D
:10017000E1F700C0000088E20E9449002FEF89EFFC
:1001800090E0215080409040E1F700C000008EE0F8
:100190000E9449002FEF89EF90E02150804090406D
:1001A000E1F700C0000081E00E9449002FEF89EFD5
:1001B00090E0215080409040E1F700C00000089599
:1001C00081E00E9449008FE39FE10197F1F700C0B1
:1001D000000008951F93CF93DF93EC01888188235B
:1001E00081F010E00E9470001F5F8FE19EE4019794
:1001F000F1F700C00000FE01E10FF11D80818111C7
:10020000F1CFDF91CF911F910895813029F4862F8E
:1002100081580E9449000895823021F4862F81542C
:100220000E9449000895CF93DF93C82FDDEC8D9F86
:10023000D12D1124D695D695D6958D2F805D0E940F
:100240007000DD0F8D2F880F880FD80F8C2F8D1B1E
:10025000805D0E947000DF91CF910895CF92DF9270
:10026000EF92FF926B017C0180E281BB369A349B56
:10027000FECF85B18093B20020E030E040E752E449
:10028000C701B6010E945302811116C080E282BBF1
:100290002FEF83EF91E0215080409040E1F700C0C4
:1002A000000012BA2FEF8DEE92E021508040904076
:1002B000E1F700C0000046C020E030E04CE852E426
:1002C000C701B6010E945302811113C080E282BBB4
:1002D0002FE786E294E0215080409040E1F700C093
:1002E000000012BA8FE59AEE0197F1F700C0000006
:1002F00029C020E030E040EA52E4C701B6010E9484
:100300005302811113C080E282BB9FE723EA84E09D
:10031000915020408040E1F700C0000012BA8FE108
:100320009EE40197F1F700C000000CC020E030E02F
:1003300044EB52E4C701B6010E945302811196CFEB
:1003400080E282BBFF90EF90DF90CF9008950E94F3
:1003500097000E94AC01FDCF87E886B980EE87B98F
:100360008CE00E9449000E94E00061E082E00E946F
:10037000050180E690E00E94EA0064E081E00E94CE
:1003800005018AE690E00E94EA006BE081E00E94AD
:1003900005018FED0E94700083E40E947000369A80
:1003A000349BFECFC5B1C093B200CA3068F469E097
:1003B00081E00E9405018C2F805D0E947000809179
:1003C000B2008A3008F456C069E081E00E9405015D
:1003D0008091B2000E9413018091B2008951823055
:1003E00070F46AE082E00E94050180E790E00E94DC
:1003F000EA0060E070E080E792E40E942E018091C4
:10040000B2008B51823070F46AE082E00E940501F4
:1004100088E790E00E94EA0060E070E08CE892E4F7
:100420000E942E018091B2008D51823070F46AE0FA
:1004300082E00E94050180E890E00E94EA0060E00E
:1004400070E080EA92E40E942E018091B2008F5108
:10045000823008F0A4CF6AE082E00E94050188E8BB
:1004600090E00E94EA0060E070E084EB92E40E9479
:100470002E0195CF0E94E00080E990E00E94EA0002
:1004800061E082E00E94050181EA90E00E94EA00BA
:100490002FEF8BE49DE1215080409040E1F700C0B8
:1004A00000000E94A70103D008F481E00895990F8D
:1004B0000008550FAA0BE0E8FEEF16161706E8072E
:1004C000F907C0F012161306E407F50798F0621B4F
:1004D000730B840B950B39F40A2661F0232B242B24
:1004E000252B21F408950A2609F4A140A6958FEF43
:0A04F000811D811D0895F894FFCFCF
:1004FA0046616E53706565643A0054454D503A0042
:10050A003530302052504D003130303052504D008D
:10051A003135303052504D003230303052504D006B
:10052A002A2054454D502E2053454E534F52202ACF
:10053A000023204E4F5420574F524B494E472023F9
:02054A000000AF
:00000001FF
